:03000000020D737B
:0C0D7300787FE4F6D8FD758118020DBAF7
:100C04007365742074686520686F7572730073650A
:100C14007420746865206D696E75746573007761FE
:100C2400746572696E6720686F75727320007761EE
:100C3400746572696E67206D696E757465730020E2
:100C44002020696E74656E7369747920003A0020FF
:100C5400202020200074696D652020207761746550
:100C640072696E67002020007761746572696E672F
:100C74002073746F70202020006C69676874207280
:100C840061696E007261696E00202020202020209E
:100C940020202020006120686561767920726169D6
:100CA4006E0020202020007761746572696E6720D1
:100CB400616374697665006D202020202020200067
:0B0CC4002020202020202020202000E5
:100EA200020C00000213000002100000010F0001FA
:100EB2000B00011500011200010E01010A000208D7
:020EC20000002E
:080E56008F90D2B77F017E00EE
:100E5E00E4FDFCC3ED9FEC9E5015E4FBFA0BBB00CA
:0F0E6E00010ABA04F8BBFBF50DBD00010C80E4CE
:010E7D002252
:100EC5007F38120EE57F0C120EE57F06120EE57FC8
:040ED50001020EE523
:080EE500C2B6120E56C2B7227C
:080EED00D2B6120E56C2B72264
:040DFF00AB07AA068E
:100E03007C007D0A120D3D8E168F17AE02AF037C58
:100E1300007D0A120D3D8D82E5172430FF120EED81
:080E2300E5822430FF020EED10
:060E2B007BFF7A0C7951F7
:100E31008B168A178918AB16AA17A918120CCF603E
:100E4100130518E5187002051714F9120CCFFF12DB
:050E51000EED80E2221D
:080E7E007F077D017C007E006E
:100E86008E168F17ED4C7005EF2480800AED6401F5
:0C0E96004C7008E51724C0FF120EE52286
:03000B00020ACB1B
:100ACB00C0E0C0F0C083C082C0D075D000C000C0F1
:0D0ADB0001C002C003C004C005C006C00772
:100AE8000509E5097002050864E87004E50864036F
:100AF8006003020BE9F508F509050BE50BB43C0D9D
:100B0800750B00050FE50FB41803750F00E50FB559
:100B18001515E50BB51210E50EB4010BE50D450CE6
:100B28007005F50C750D01E50D6401450C7011E5B6
:100B38000B6512600BE50EB40106750C00750D000F
:100B4800E50FB51515E50BB51210E50EB4020BE56A
:100B58000D450C7005F50C750D01E50D6401450C8E
:100B68007031C3E50B9512FFE49400FE120ED9EF25
:100B780064024E6013C3E50B9512FFE49400FE1265
:100B88000ED9EF643A4E700BE50EB40206750C00F0
:100B9800750D00E50FB51510E50BB5120BE50EB494
:100BA8000306750C00750D01E50D6401450C7031E7
:100BB800C3E50B9512FFE49400FE120ED9EF64030F
:100BC8004E6013C3E50B9512FFE49400FE120ED994
:100BD800EF64394E700BE50EB40306750C00750D05
:010BE800000C
:100BE900D007D006D005D004D003D002D001D00060
:0B0BF900D0D0D082D083D0F0D0E0320A
:10080000120EC5E4FDFC7F01FE120E867BFF7A0C02
:100810007904120E31758901758CFC758A18D2A97C
:10082000D2AFD28C20B277E50A7013E50F2401FF16
:10083000E433FE7C007D18120CE88D0F8059E50A28
:10084000B40113E50B2401FFE433FE7C007D3C1270
:100850000CE88D0B8041E50AB40213E5152401FF75
:10086000E433FE7C007D18120CE88D158029E50A22
:10087000B40313E5122401FFE433FE7C007D3C1237
:100880000CE88D128011E50AB4040CE50E04540343
:10089000F50E7003750E017FC87E00120E5E20B14A
:1008A00070050A7FC87E00120E5EE50AB40110E4EE
:1008B000FDFC7F01120E867BFF7A0C79128043E5E6
:1008C0000AB40211E4FDFC7F01FE120E867BFF7A62
:1008D0000C7922802DE50AB40310E4FDFCFFFE1222
:1008E0000E867BFF7A0C79328018E50AB404187FF3
:1008F00001120EE5E4FDFCFFFE120E867BFF7A0C72
:100900007943120E31800AE50AB405057F01120E03
:10091000E57F05120E80E50AC394025014AF0F7EE6
:1009200000120DFF120E2BAF0B7E00120DFF0209FD
:10093000F5E50AC39404500EAF157E00120DFF12A8
:100940000E2BAF12800CE50AC39405500D120E7EDB
:10095000AF0E7E00120DFF020824E50D450C705B02
:10096000D2B0FDFCFFFE120E867BFF7A0C79591285
:100970000E317D017C007F087E00120E867BFF7A9F
:100980000C7969120E31AF157E00120DFF120E2B7D
:10099000AF127E00120DFF7D017C00E4FFFE120EFF
:1009A00086AF0F7E00120DFF120E2BAF0B7E0012D2
:1009B0000DFF7BFF7A0C7969020A7620B33F30B4D1
:1009C0003C30B539D2B0E4FDFCFFFE120E867BFF51
:1009D0007A0C796C120E317D017C00E4FFFE120E60
:1009E000867BFF7A0C797D120E317D017C007F0AB7
:1009F0007E00120E867BFF7A0C7953807920B43CFE
:100A000030B539D2B0E4FDFCFFFE120E867BFF7AD2
:100A10000C796C120E317D017C00E4FFFE120E8613
:100A20007BFF7A0C7988120E317D017C007F047E79
:100A300000120E867BFF7A0C798D803A20B53DD26C
:100A4000B0E4FDFCFFFE120E867BFF7A0C796C127F
:100A50000E317D017C00E4FFFE120E867BFF7A0CD6
:100A60007999120E317D017C007F0C7E00120E867A
:100A70007BFF7A0C79A6120E3102082420B3030200
:100A80000824C2B0E4FDFCFFFE120E867BFF7A0C48
:100A900079AB120E317D017C00E4FFFE120E86E57B
:100AA00012250EFFE433FEC3EF950BFFEE9400FE1C
:100AB000120DFF7BFF7A0C79BB120E31120E7E7B7A
:0B0AC000FF7A0C79C4120E31020824EA
:100D7F00020800E493A3F8E493A34003F68001F282
:100D8F0008DFF48029E493A3F85407240CC8C33375
:100D9F00C4540F4420C8834004F456800146F6DF44
:100DAF00E4800B0102040810204080900EA2E47E24
:100DBF00019360BCA3FF543F30E509541FFEE49339
:100DCF00A360010ECF54C025E060A840B8E493A300
:100DDF00FAE493A3F8E493A3C8C582C8CAC583CA2B
:100DEF00F0A3C8C582C8CAC583CADFE9DEE780BEE3
:010EC400002D
:100CCF00BB010689828A83E0225002E722BBFE0223
:090CDF00E32289828A83E4932256
:100CE800BC000BBE0029EF8DF084FFADF022E4CCF0
:100CF800F875F008EF2FFFEE33FEEC33FCEE9DECB9
:100D0800984005FCEE9DFE0FD5F0E9E4CEFD22EDFE
:100D1800F8F5F0EE8420D21CFEADF075F008EF2F48
:100D2800FFED33FD4007985006D5F0F222C398FD39
:050D38000FD5F0EA22D6
:100D3D00C2D5EC30E709B2D5E4C39DFDE49CFCEED1
:100D4D0030E715B2D5E4C39FFFE49EFE120CE8C355
:100D5D00E49DFDE49CFC8003120CE830D507C3E450
:060D6D009FFFE49EFE2240
:0C0ED900EE30E707C3E49FFFE49EFE221A
:00000001FF
